{
  "contractName": "NoBookie",
  "abi": [
    {
      "constant": true,
      "inputs": [],
      "name": "owner",
      "outputs": [
        {
          "name": "",
          "type": "address"
        }
      ],
      "payable": false,
      "stateMutability": "view",
      "type": "function"
    },
    {
      "inputs": [],
      "payable": false,
      "stateMutability": "nonpayable",
      "type": "constructor"
    },
    {
      "anonymous": false,
      "inputs": [
        {
          "indexed": false,
          "name": "_from",
          "type": "address"
        },
        {
          "indexed": false,
          "name": "_amount",
          "type": "uint256"
        }
      ],
      "name": "Deposit",
      "type": "event"
    },
    {
      "anonymous": false,
      "inputs": [
        {
          "indexed": false,
          "name": "_to",
          "type": "address"
        },
        {
          "indexed": false,
          "name": "_amount",
          "type": "uint256"
        }
      ],
      "name": "Refund",
      "type": "event"
    },
    {
      "constant": false,
      "inputs": [
        {
          "name": "betId",
          "type": "string"
        }
      ],
      "name": "addBet",
      "outputs": [
        {
          "name": "success",
          "type": "bool"
        }
      ],
      "payable": true,
      "stateMutability": "payable",
      "type": "function"
    },
    {
      "constant": false,
      "inputs": [
        {
          "name": "betId",
          "type": "string"
        }
      ],
      "name": "acceptBet",
      "outputs": [
        {
          "name": "success",
          "type": "bool"
        }
      ],
      "payable": true,
      "stateMutability": "payable",
      "type": "function"
    },
    {
      "constant": false,
      "inputs": [
        {
          "name": "betId",
          "type": "string"
        },
        {
          "name": "winner",
          "type": "address"
        }
      ],
      "name": "disburseBet",
      "outputs": [
        {
          "name": "success",
          "type": "bool"
        }
      ],
      "payable": false,
      "stateMutability": "nonpayable",
      "type": "function"
    },
    {
      "constant": false,
      "inputs": [
        {
          "name": "betId",
          "type": "string"
        },
        {
          "name": "winner",
          "type": "address"
        },
        {
          "name": "fee",
          "type": "uint256"
        }
      ],
      "name": "disburseBetMinusFee",
      "outputs": [
        {
          "name": "success",
          "type": "bool"
        }
      ],
      "payable": false,
      "stateMutability": "nonpayable",
      "type": "function"
    },
    {
      "constant": false,
      "inputs": [
        {
          "name": "betId",
          "type": "string"
        }
      ],
      "name": "cancelBet",
      "outputs": [
        {
          "name": "success",
          "type": "bool"
        }
      ],
      "payable": false,
      "stateMutability": "nonpayable",
      "type": "function"
    }
  ],
  "bytecode": "0x608060405234801561001057600080fd5b50336000806101000a81548173ffffffffffffffffffffffffffffffffffffffff021916908373ffffffffffffffffffffffffffffffffffffffff160217905550611dd5806100606000396000f300608060405260043610610078576000357c0100000000000000000000000000000000000000000000000000000000900463ffffffff16806339df09241461007d5780635e5d48bc1461012857806363ccb69d1461019c5780638da5cb5b1461021d578063b6c6d16d14610274578063cd53dab114610315575b600080fd5b34801561008957600080fd5b5061010e600480360381019080803590602001908201803590602001908080601f0160208091040260200160405190810160405280939291908181526020018383808284378201915050505050509192919290803573ffffffffffffffffffffffffffffffffffffffff16906020019092919080359060200190929190505050610389565b604051808215151515815260200191505060405180910390f35b610182600480360381019080803590602001908201803590602001908080601f0160208091040260200160405190810160405280939291908181526020018383808284378201915050505050509192919290505050610966565b604051808215151515815260200191505060405180910390f35b3480156101a857600080fd5b50610203600480360381019080803590602001908201803590602001908080601f0160208091040260200160405190810160405280939291908181526020018383808284378201915050505050509192919290505050610b16565b604051808215151515815260200191505060405180910390f35b34801561022957600080fd5b50610232611677565b604051808273ffffffffffffffffffffffffffffffffffffffff1673ffffffffffffffffffffffffffffffffffffffff16815260200191505060405180910390f35b34801561028057600080fd5b506102fb600480360381019080803590602001908201803590602001908080601f0160208091040260200160405190810160405280939291908181526020018383808284378201915050505050509192919290803573ffffffffffffffffffffffffffffffffffffffff16906020019092919050505061169c565b604051808215151515815260200191505060405180910390f35b61036f600480360381019080803590602001908201803590602001908080601f0160208091040260200160405190810160405280939291908181526020018383808284378201915050505050509192919290505050611be6565b604051808215151515815260200191505060405180910390f35b60008060009054906101000a900473ffffffffffffffffffffffffffffffffffffffff1673ffffffffffffffffffffffffffffffffffffffff163373ffffffffffffffffffffffffffffffffffffffff161415156103e657600080fd5b8273ffffffffffffffffffffffffffffffffffffffff166001856040518082805190602001908083835b6020831015156104355780518252602082019150602081019050602083039250610410565b6001836020036101000a038019825116818451168082178552505050505050905001915050908152602001604051809103902060000160009054906101000a900473ffffffffffffffffffffffffffffffffffffffff1673ffffffffffffffffffffffffffffffffffffffff161415610639576001846040518082805190602001908083835b6020831015156104e057805182526020820191506020810190506020830392506104bb565b6001836020036101000a038019825116818451168082178552505050505050905001915050908152602001604051809103902060000160009054906101000a900473ffffffffffffffffffffffffffffffffffffffff1673ffffffffffffffffffffffffffffffffffffffff166108fc836001876040518082805190602001908083835b6020831015156105895780518252602082019150602081019050602083039250610564565b6001836020036101000a038019825116818451168082178552505050505050905001915050908152602001604051809103902060020154039081150290604051600060405180830381858888f193505050501580156105ec573d6000803e3d6000fd5b503373ffffffffffffffffffffffffffffffffffffffff166108fc839081150290604051600060405180830381858888f19350505050158015610633573d6000803e3d6000fd5b50610896565b8273ffffffffffffffffffffffffffffffffffffffff166001856040518082805190602001908083835b6020831015156106885780518252602082019150602081019050602083039250610663565b6001836020036101000a038019825116818451168082178552505050505050905001915050908152602001604051809103902060010160009054906101000a900473ffffffffffffffffffffffffffffffffffffffff1673ffffffffffffffffffffffffffffffffffffffff16141561088c576001846040518082805190602001908083835b602083101515610733578051825260208201915060208101905060208303925061070e565b6001836020036101000a038019825116818451168082178552505050505050905001915050908152602001604051809103902060010160009054906101000a900473ffffffffffffffffffffffffffffffffffffffff1673ffffffffffffffffffffffffffffffffffffffff166108fc836001876040518082805190602001908083835b6020831015156107dc57805182526020820191506020810190506020830392506107b7565b6001836020036101000a038019825116818451168082178552505050505050905001915050908152602001604051809103902060020154039081150290604051600060405180830381858888f1935050505015801561083f573d6000803e3d6000fd5b503373ffffffffffffffffffffffffffffffffffffffff166108fc839081150290604051600060405180830381858888f19350505050158015610886573d6000803e3d6000fd5b50610895565b6000905061095f565b5b6001846040518082805190602001908083835b6020831015156108ce57805182526020820191506020810190506020830392506108a9565b6001836020036101000a0380198251168184511680821785525050505050509050019150509081526020016040518091039020600080820160006101000a81549073ffffffffffffffffffffffffffffffffffffffff02191690556001820160006101000a81549073ffffffffffffffffffffffffffffffffffffffff021916905560028201600090555050600190505b9392505050565b60006001826040518082805190602001908083835b6020831015156109a0578051825260208201915060208101905060208303925061097b565b6001836020036101000a038019825116818451168082178552505050505050905001915050908152602001604051809103902060020154341415156109e457600080fd5b336001836040518082805190602001908083835b602083101515610a1d57805182526020820191506020810190506020830392506109f8565b6001836020036101000a038019825116818451168082178552505050505050905001915050908152602001604051809103902060010160006101000a81548173ffffffffffffffffffffffffffffffffffffffff021916908373ffffffffffffffffffffffffffffffffffffffff160217905550346001836040518082805190602001908083835b602083101515610aca5780518252602082019150602081019050602083039250610aa5565b6001836020036101000a03801982511681845116808217855250505050505090500191505090815260200160405180910390206002016000828254019250508190555060019050919050565b60006001826040518082805190602001908083835b602083101515610b505780518252602082019150602081019050602083039250610b2b565b6001836020036101000a038019825116818451168082178552505050505050905001915050908152602001604051809103902060000160009054906101000a900473ffffffffffffffffffffffffffffffffffffffff1673ffffffffffffffffffffffffffffffffffffffff163373ffffffffffffffffffffffffffffffffffffffff1614158015610c9c57506001826040518082805190602001908083835b602083101515610c155780518252602082019150602081019050602083039250610bf0565b6001836020036101000a038019825116818451168082178552505050505050905001915050908152602001604051809103902060010160009054906101000a900473ffffffffffffffffffffffffffffffffffffffff1673ffffffffffffffffffffffffffffffffffffffff163373ffffffffffffffffffffffffffffffffffffffff1614155b1515610ca757600080fd5b600073ffffffffffffffffffffffffffffffffffffffff166001836040518082805190602001908083835b602083101515610cf75780518252602082019150602081019050602083039250610cd2565b6001836020036101000a038019825116818451168082178552505050505050905001915050908152602001604051809103902060010160009054906101000a900473ffffffffffffffffffffffffffffffffffffffff1673ffffffffffffffffffffffffffffffffffffffff161415611025576001826040518082805190602001908083835b602083101515610da25780518252602082019150602081019050602083039250610d7d565b6001836020036101000a038019825116818451168082178552505050505050905001915050908152602001604051809103902060000160009054906101000a900473ffffffffffffffffffffffffffffffffffffffff1673ffffffffffffffffffffffffffffffffffffffff166108fc6001846040518082805190602001908083835b602083101515610e4a5780518252602082019150602081019050602083039250610e25565b6001836020036101000a0380198251168184511680821785525050505050509050019150509081526020016040518091039020600201549081150290604051600060405180830381858888f19350505050158015610eac573d6000803e3d6000fd5b507fbb28353e4598c3b9199101a66e0989549b659a59a54d2c27fbb183f1932c8e6d6001836040518082805190602001908083835b602083101515610f065780518252602082019150602081019050602083039250610ee1565b6001836020036101000a038019825116818451168082178552505050505050905001915050908152602001604051809103902060000160009054906101000a900473ffffffffffffffffffffffffffffffffffffffff1660026001856040518082805190602001908083835b602083101515610f975780518252602082019150602081019050602083039250610f72565b6001836020036101000a038019825116818451168082178552505050505050905001915050908152602001604051809103902060020154811515610fd757fe5b04604051808373ffffffffffffffffffffffffffffffffffffffff1673ffffffffffffffffffffffffffffffffffffffff1681526020018281526020019250505060405180910390a16115aa565b6001826040518082805190602001908083835b60208310151561105d5780518252602082019150602081019050602083039250611038565b6001836020036101000a038019825116818451168082178552505050505050905001915050908152602001604051809103902060000160009054906101000a900473ffffffffffffffffffffffffffffffffffffffff1673ffffffffffffffffffffffffffffffffffffffff166108fc60026001856040518082805190602001908083835b60208310151561110757805182526020820191506020810190506020830392506110e2565b6001836020036101000a03801982511681845116808217855250505050505090500191505090815260200160405180910390206002015481151561114757fe5b049081150290604051600060405180830381858888f19350505050158015611173573d6000803e3d6000fd5b506001826040518082805190602001908083835b6020831015156111ac5780518252602082019150602081019050602083039250611187565b6001836020036101000a038019825116818451168082178552505050505050905001915050908152602001604051809103902060010160009054906101000a900473ffffffffffffffffffffffffffffffffffffffff1673ffffffffffffffffffffffffffffffffffffffff166108fc60026001856040518082805190602001908083835b6020831015156112565780518252602082019150602081019050602083039250611231565b6001836020036101000a03801982511681845116808217855250505050505090500191505090815260200160405180910390206002015481151561129657fe5b049081150290604051600060405180830381858888f193505050501580156112c2573d6000803e3d6000fd5b507fbb28353e4598c3b9199101a66e0989549b659a59a54d2c27fbb183f1932c8e6d6001836040518082805190602001908083835b60208310151561131c57805182526020820191506020810190506020830392506112f7565b6001836020036101000a038019825116818451168082178552505050505050905001915050908152602001604051809103902060000160009054906101000a900473ffffffffffffffffffffffffffffffffffffffff1660026001856040518082805190602001908083835b6020831015156113ad5780518252602082019150602081019050602083039250611388565b6001836020036101000a0380198251168184511680821785525050505050509050019150509081526020016040518091039020600201548115156113ed57fe5b04604051808373ffffffffffffffffffffffffffffffffffffffff1673ffffffffffffffffffffffffffffffffffffffff1681526020018281526020019250505060405180910390a17fbb28353e4598c3b9199101a66e0989549b659a59a54d2c27fbb183f1932c8e6d6001836040518082805190602001908083835b60208310151561148f578051825260208201915060208101905060208303925061146a565b6001836020036101000a038019825116818451168082178552505050505050905001915050908152602001604051809103902060010160009054906101000a900473ffffffffffffffffffffffffffffffffffffffff1660026001856040518082805190602001908083835b60208310151561152057805182526020820191506020810190506020830392506114fb565b6001836020036101000a03801982511681845116808217855250505050505090500191505090815260200160405180910390206002015481151561156057fe5b04604051808373ffffffffffffffffffffffffffffffffffffffff1673ffffffffffffffffffffffffffffffffffffffff1681526020018281526020019250505060405180910390a15b6001826040518082805190602001908083835b6020831015156115e257805182526020820191506020810190506020830392506115bd565b6001836020036101000a0380198251168184511680821785525050505050509050019150509081526020016040518091039020600080820160006101000a81549073ffffffffffffffffffffffffffffffffffffffff02191690556001820160006101000a81549073ffffffffffffffffffffffffffffffffffffffff02191690556002820160009055505060019050919050565b6000809054906101000a900473ffffffffffffffffffffffffffffffffffffffff1681565b60008060009054906101000a900473ffffffffffffffffffffffffffffffffffffffff1673ffffffffffffffffffffffffffffffffffffffff163373ffffffffffffffffffffffffffffffffffffffff161415156116f957600080fd5b8173ffffffffffffffffffffffffffffffffffffffff166001846040518082805190602001908083835b6020831015156117485780518252602082019150602081019050602083039250611723565b6001836020036101000a038019825116818451168082178552505050505050905001915050908152602001604051809103902060000160009054906101000a900473ffffffffffffffffffffffffffffffffffffffff1673ffffffffffffffffffffffffffffffffffffffff161415611903576001836040518082805190602001908083835b6020831015156117f357805182526020820191506020810190506020830392506117ce565b6001836020036101000a038019825116818451168082178552505050505050905001915050908152602001604051809103902060000160009054906101000a900473ffffffffffffffffffffffffffffffffffffffff1673ffffffffffffffffffffffffffffffffffffffff166108fc6001856040518082805190602001908083835b60208310151561189b5780518252602082019150602081019050602083039250611876565b6001836020036101000a0380198251168184511680821785525050505050509050019150509081526020016040518091039020600201549081150290604051600060405180830381858888f193505050501580156118fd573d6000803e3d6000fd5b50611b17565b8173ffffffffffffffffffffffffffffffffffffffff166001846040518082805190602001908083835b602083101515611952578051825260208201915060208101905060208303925061192d565b6001836020036101000a038019825116818451168082178552505050505050905001915050908152602001604051809103902060010160009054906101000a900473ffffffffffffffffffffffffffffffffffffffff1673ffffffffffffffffffffffffffffffffffffffff161415611b0d576001836040518082805190602001908083835b6020831015156119fd57805182526020820191506020810190506020830392506119d8565b6001836020036101000a038019825116818451168082178552505050505050905001915050908152602001604051809103902060010160009054906101000a900473ffffffffffffffffffffffffffffffffffffffff1673ffffffffffffffffffffffffffffffffffffffff166108fc6001856040518082805190602001908083835b602083101515611aa55780518252602082019150602081019050602083039250611a80565b6001836020036101000a0380198251168184511680821785525050505050509050019150509081526020016040518091039020600201549081150290604051600060405180830381858888f19350505050158015611b07573d6000803e3d6000fd5b50611b16565b60009050611be0565b5b6001836040518082805190602001908083835b602083101515611b4f5780518252602082019150602081019050602083039250611b2a565b6001836020036101000a0380198251168184511680821785525050505050509050019150509081526020016040518091039020600080820160006101000a81549073ffffffffffffffffffffffffffffffffffffffff02191690556001820160006101000a81549073ffffffffffffffffffffffffffffffffffffffff021916905560028201600090555050600190505b92915050565b6000611bf0611d5b565b600034111515611bff57600080fd5b6060604051908101604052803373ffffffffffffffffffffffffffffffffffffffff168152602001600073ffffffffffffffffffffffffffffffffffffffff168152602001348152509050806001846040518082805190602001908083835b602083101515611c835780518252602082019150602081019050602083039250611c5e565b6001836020036101000a038019825116818451168082178552505050505050905001915050908152602001604051809103902060008201518160000160006101000a81548173ffffffffffffffffffffffffffffffffffffffff021916908373ffffffffffffffffffffffffffffffffffffffff16021790555060208201518160010160006101000a81548173ffffffffffffffffffffffffffffffffffffffff021916908373ffffffffffffffffffffffffffffffffffffffff160217905550604082015181600201559050506001915050919050565b606060405190810160405280600073ffffffffffffffffffffffffffffffffffffffff168152602001600073ffffffffffffffffffffffffffffffffffffffff1681526020016000815250905600a165627a7a7230582031dc2c1afae526bbdc1338e1fb5c58b7713b9a89ad23a022c4aeb6128980fc0f0029",
  "source": "pragma solidity ^0.4.19;\n\ncontract NoBookie {\n\n  struct Bet {\n    address creator;\n    address challenger;\n    uint amount;\n  }\n\n  address public owner;\n\n  mapping (string => Bet) bets;\n\n  modifier ownerOnly {require(msg.sender == owner); _;}\n\n  event Deposit(address _from, uint _amount);\n  event Refund(address _to, uint _amount);\n\n  constructor() public {\n    owner = msg.sender;\n  }\n\n  function addBet(string betId) public payable returns (bool success) {\n    require(msg.value > 0);\n\n    Bet memory bet = Bet(msg.sender, 0x0, msg.value);\n    bets[betId] = bet;\n\n    return true;\n  }\n\n  function acceptBet(string betId) public payable returns (bool success) {\n    require(msg.value == bets[betId].amount);\n\n    bets[betId].challenger = msg.sender;\n    bets[betId].amount += msg.value;\n\n    return true;\n  }\n\n  function disburseBet(\n    string betId,\n    address winner\n  ) ownerOnly public returns (bool success) {\n    if (bets[betId].creator == winner) {\n      bets[betId].creator.transfer(bets[betId].amount);\n    } else if (bets[betId].challenger == winner) {\n      bets[betId].challenger.transfer(bets[betId].amount);\n    } else {\n      return false;\n    }\n\n    delete bets[betId];\n    return true;\n  }\n\n  function disburseBetMinusFee(\n    string betId,\n    address winner,\n    uint fee\n  ) ownerOnly public returns (bool success) {\n    if (bets[betId].creator == winner) {\n      bets[betId].creator.transfer(bets[betId].amount - fee);\n      msg.sender.transfer(fee);\n    } else if (bets[betId].challenger == winner) {\n      bets[betId].challenger.transfer(bets[betId].amount - fee);\n      msg.sender.transfer(fee);\n    } else {\n      return false;\n    }\n\n    delete bets[betId];\n    return true;\n  }\n\n  // when there's no challenger, the creator should get it all\n  // when there is a challenger, the creator gets half and the challenger gets half\n  function cancelBet(string betId) public returns (bool success) {\n    require(msg.sender != bets[betId].creator && msg.sender != bets[betId].challenger);\n\n    if (bets[betId].challenger == address(0)) {\n      bets[betId].creator.transfer(bets[betId].amount);\n      emit Refund(bets[betId].creator, bets[betId].amount / 2);\n    } else {\n      bets[betId].creator.transfer(bets[betId].amount / 2);\n      bets[betId].challenger.transfer(bets[betId].amount / 2);\n      emit Refund(bets[betId].creator, bets[betId].amount / 2);\n      emit Refund(bets[betId].challenger, bets[betId].amount / 2);\n    }\n\n    delete bets[betId];\n\n    return true;\n  }\n}\n",
  "sourcePath": "/Users/ishmael/www/freelance/cryptosports/cryptosports-smartcontract/contracts/NoBookie.sol",
  "compiler": {
    "name": "solc",
    "version": "0.4.23+commit.124ca40d.Emscripten.clang"
  },
  "schemaVersion": "2.0.0",
  "updatedAt": "2018-11-09T06:30:33.152Z"
}