{
  "contractName": "NoBookie",
  "abi": [
    {
      "constant": true,
      "inputs": [],
      "name": "owner",
      "outputs": [
        {
          "name": "",
          "type": "address"
        }
      ],
      "payable": false,
      "stateMutability": "view",
      "type": "function"
    },
    {
      "inputs": [],
      "payable": false,
      "stateMutability": "nonpayable",
      "type": "constructor"
    },
    {
      "anonymous": false,
      "inputs": [
        {
          "indexed": false,
          "name": "_from",
          "type": "address"
        },
        {
          "indexed": false,
          "name": "_amount",
          "type": "uint256"
        }
      ],
      "name": "Deposit",
      "type": "event"
    },
    {
      "anonymous": false,
      "inputs": [
        {
          "indexed": false,
          "name": "_to",
          "type": "address"
        },
        {
          "indexed": false,
          "name": "_amount",
          "type": "uint256"
        }
      ],
      "name": "Refund",
      "type": "event"
    },
    {
      "anonymous": false,
      "inputs": [
        {
          "indexed": false,
          "name": "_to",
          "type": "address"
        },
        {
          "indexed": false,
          "name": "amount",
          "type": "uint256"
        },
        {
          "indexed": false,
          "name": "fee",
          "type": "uint256"
        }
      ],
      "name": "Disburse",
      "type": "event"
    },
    {
      "constant": false,
      "inputs": [
        {
          "name": "betId",
          "type": "string"
        }
      ],
      "name": "addBet",
      "outputs": [
        {
          "name": "success",
          "type": "bool"
        }
      ],
      "payable": true,
      "stateMutability": "payable",
      "type": "function"
    },
    {
      "constant": false,
      "inputs": [
        {
          "name": "betId",
          "type": "string"
        }
      ],
      "name": "acceptBet",
      "outputs": [
        {
          "name": "success",
          "type": "bool"
        }
      ],
      "payable": true,
      "stateMutability": "payable",
      "type": "function"
    },
    {
      "constant": false,
      "inputs": [
        {
          "name": "betId",
          "type": "string"
        },
        {
          "name": "winner",
          "type": "address"
        }
      ],
      "name": "disburseBet",
      "outputs": [
        {
          "name": "success",
          "type": "bool"
        }
      ],
      "payable": false,
      "stateMutability": "nonpayable",
      "type": "function"
    },
    {
      "constant": false,
      "inputs": [
        {
          "name": "betId",
          "type": "string"
        },
        {
          "name": "winner",
          "type": "address"
        },
        {
          "name": "fee",
          "type": "uint256"
        }
      ],
      "name": "disburseBetMinusFee",
      "outputs": [
        {
          "name": "success",
          "type": "bool"
        }
      ],
      "payable": false,
      "stateMutability": "nonpayable",
      "type": "function"
    },
    {
      "constant": false,
      "inputs": [
        {
          "name": "betId",
          "type": "string"
        }
      ],
      "name": "cancelBet",
      "outputs": [
        {
          "name": "success",
          "type": "bool"
        }
      ],
      "payable": false,
      "stateMutability": "nonpayable",
      "type": "function"
    }
  ],
  "bytecode": "0x608060405234801561001057600080fd5b50336000806101000a81548173ffffffffffffffffffffffffffffffffffffffff021916908373ffffffffffffffffffffffffffffffffffffffff1602179055506120b7806100606000396000f300608060405260043610610078576000357c0100000000000000000000000000000000000000000000000000000000900463ffffffff16806339df09241461007d5780635e5d48bc1461012857806363ccb69d1461019c5780638da5cb5b1461021d578063b6c6d16d14610274578063cd53dab114610315575b600080fd5b34801561008957600080fd5b5061010e600480360381019080803590602001908201803590602001908080601f0160208091040260200160405190810160405280939291908181526020018383808284378201915050505050509192919290803573ffffffffffffffffffffffffffffffffffffffff16906020019092919080359060200190929190505050610389565b604051808215151515815260200191505060405180910390f35b610182600480360381019080803590602001908201803590602001908080601f0160208091040260200160405190810160405280939291908181526020018383808284378201915050505050509192919290505050610c48565b604051808215151515815260200191505060405180910390f35b3480156101a857600080fd5b50610203600480360381019080803590602001908201803590602001908080601f0160208091040260200160405190810160405280939291908181526020018383808284378201915050505050509192919290505050610df8565b604051808215151515815260200191505060405180910390f35b34801561022957600080fd5b50610232611959565b604051808273ffffffffffffffffffffffffffffffffffffffff1673ffffffffffffffffffffffffffffffffffffffff16815260200191505060405180910390f35b34801561028057600080fd5b506102fb600480360381019080803590602001908201803590602001908080601f0160208091040260200160405190810160405280939291908181526020018383808284378201915050505050509192919290803573ffffffffffffffffffffffffffffffffffffffff16906020019092919050505061197e565b604051808215151515815260200191505060405180910390f35b61036f600480360381019080803590602001908201803590602001908080601f0160208091040260200160405190810160405280939291908181526020018383808284378201915050505050509192919290505050611ec8565b604051808215151515815260200191505060405180910390f35b60008060009054906101000a900473ffffffffffffffffffffffffffffffffffffffff1673ffffffffffffffffffffffffffffffffffffffff163373ffffffffffffffffffffffffffffffffffffffff161415156103e657600080fd5b8273ffffffffffffffffffffffffffffffffffffffff166001856040518082805190602001908083835b6020831015156104355780518252602082019150602081019050602083039250610410565b6001836020036101000a038019825116818451168082178552505050505050905001915050908152602001604051809103902060000160009054906101000a900473ffffffffffffffffffffffffffffffffffffffff1673ffffffffffffffffffffffffffffffffffffffff1614156107aa576001846040518082805190602001908083835b6020831015156104e057805182526020820191506020810190506020830392506104bb565b6001836020036101000a038019825116818451168082178552505050505050905001915050908152602001604051809103902060000160009054906101000a900473ffffffffffffffffffffffffffffffffffffffff1673ffffffffffffffffffffffffffffffffffffffff166108fc836001876040518082805190602001908083835b6020831015156105895780518252602082019150602081019050602083039250610564565b6001836020036101000a038019825116818451168082178552505050505050905001915050908152602001604051809103902060020154039081150290604051600060405180830381858888f193505050501580156105ec573d6000803e3d6000fd5b503373ffffffffffffffffffffffffffffffffffffffff166108fc839081150290604051600060405180830381858888f19350505050158015610633573d6000803e3d6000fd5b507f806e97c39ffcf495cc9db26c630b6aff07509f95eaf7c39d7bf65a95ade1bea26001856040518082805190602001908083835b60208310151561068d5780518252602082019150602081019050602083039250610668565b6001836020036101000a038019825116818451168082178552505050505050905001915050908152602001604051809103902060000160009054906101000a900473ffffffffffffffffffffffffffffffffffffffff16836001876040518082805190602001908083835b60208310151561071d57805182526020820191506020810190506020830392506106f8565b6001836020036101000a0380198251168184511680821785525050505050509050019150509081526020016040518091039020600201540384604051808473ffffffffffffffffffffffffffffffffffffffff1673ffffffffffffffffffffffffffffffffffffffff168152602001838152602001828152602001935050505060405180910390a1610b78565b8273ffffffffffffffffffffffffffffffffffffffff166001856040518082805190602001908083835b6020831015156107f957805182526020820191506020810190506020830392506107d4565b6001836020036101000a038019825116818451168082178552505050505050905001915050908152602001604051809103902060010160009054906101000a900473ffffffffffffffffffffffffffffffffffffffff1673ffffffffffffffffffffffffffffffffffffffff161415610b6e576001846040518082805190602001908083835b6020831015156108a4578051825260208201915060208101905060208303925061087f565b6001836020036101000a038019825116818451168082178552505050505050905001915050908152602001604051809103902060010160009054906101000a900473ffffffffffffffffffffffffffffffffffffffff1673ffffffffffffffffffffffffffffffffffffffff166108fc836001876040518082805190602001908083835b60208310151561094d5780518252602082019150602081019050602083039250610928565b6001836020036101000a038019825116818451168082178552505050505050905001915050908152602001604051809103902060020154039081150290604051600060405180830381858888f193505050501580156109b0573d6000803e3d6000fd5b507f806e97c39ffcf495cc9db26c630b6aff07509f95eaf7c39d7bf65a95ade1bea26001856040518082805190602001908083835b602083101515610a0a57805182526020820191506020810190506020830392506109e5565b6001836020036101000a038019825116818451168082178552505050505050905001915050908152602001604051809103902060010160009054906101000a900473ffffffffffffffffffffffffffffffffffffffff16836001876040518082805190602001908083835b602083101515610a9a5780518252602082019150602081019050602083039250610a75565b6001836020036101000a0380198251168184511680821785525050505050509050019150509081526020016040518091039020600201540384604051808473ffffffffffffffffffffffffffffffffffffffff1673ffffffffffffffffffffffffffffffffffffffff168152602001838152602001828152602001935050505060405180910390a13373ffffffffffffffffffffffffffffffffffffffff166108fc839081150290604051600060405180830381858888f19350505050158015610b68573d6000803e3d6000fd5b50610b77565b60009050610c41565b5b6001846040518082805190602001908083835b602083101515610bb05780518252602082019150602081019050602083039250610b8b565b6001836020036101000a0380198251168184511680821785525050505050509050019150509081526020016040518091039020600080820160006101000a81549073ffffffffffffffffffffffffffffffffffffffff02191690556001820160006101000a81549073ffffffffffffffffffffffffffffffffffffffff021916905560028201600090555050600190505b9392505050565b60006001826040518082805190602001908083835b602083101515610c825780518252602082019150602081019050602083039250610c5d565b6001836020036101000a03801982511681845116808217855250505050505090500191505090815260200160405180910390206002015434141515610cc657600080fd5b336001836040518082805190602001908083835b602083101515610cff5780518252602082019150602081019050602083039250610cda565b6001836020036101000a038019825116818451168082178552505050505050905001915050908152602001604051809103902060010160006101000a81548173ffffffffffffffffffffffffffffffffffffffff021916908373ffffffffffffffffffffffffffffffffffffffff160217905550346001836040518082805190602001908083835b602083101515610dac5780518252602082019150602081019050602083039250610d87565b6001836020036101000a03801982511681845116808217855250505050505090500191505090815260200160405180910390206002016000828254019250508190555060019050919050565b60006001826040518082805190602001908083835b602083101515610e325780518252602082019150602081019050602083039250610e0d565b6001836020036101000a038019825116818451168082178552505050505050905001915050908152602001604051809103902060000160009054906101000a900473ffffffffffffffffffffffffffffffffffffffff1673ffffffffffffffffffffffffffffffffffffffff163373ffffffffffffffffffffffffffffffffffffffff1614158015610f7e57506001826040518082805190602001908083835b602083101515610ef75780518252602082019150602081019050602083039250610ed2565b6001836020036101000a038019825116818451168082178552505050505050905001915050908152602001604051809103902060010160009054906101000a900473ffffffffffffffffffffffffffffffffffffffff1673ffffffffffffffffffffffffffffffffffffffff163373ffffffffffffffffffffffffffffffffffffffff1614155b1515610f8957600080fd5b600073ffffffffffffffffffffffffffffffffffffffff166001836040518082805190602001908083835b602083101515610fd95780518252602082019150602081019050602083039250610fb4565b6001836020036101000a038019825116818451168082178552505050505050905001915050908152602001604051809103902060010160009054906101000a900473ffffffffffffffffffffffffffffffffffffffff1673ffffffffffffffffffffffffffffffffffffffff161415611307576001826040518082805190602001908083835b602083101515611084578051825260208201915060208101905060208303925061105f565b6001836020036101000a038019825116818451168082178552505050505050905001915050908152602001604051809103902060000160009054906101000a900473ffffffffffffffffffffffffffffffffffffffff1673ffffffffffffffffffffffffffffffffffffffff166108fc6001846040518082805190602001908083835b60208310151561112c5780518252602082019150602081019050602083039250611107565b6001836020036101000a0380198251168184511680821785525050505050509050019150509081526020016040518091039020600201549081150290604051600060405180830381858888f1935050505015801561118e573d6000803e3d6000fd5b507fbb28353e4598c3b9199101a66e0989549b659a59a54d2c27fbb183f1932c8e6d6001836040518082805190602001908083835b6020831015156111e857805182526020820191506020810190506020830392506111c3565b6001836020036101000a038019825116818451168082178552505050505050905001915050908152602001604051809103902060000160009054906101000a900473ffffffffffffffffffffffffffffffffffffffff1660026001856040518082805190602001908083835b6020831015156112795780518252602082019150602081019050602083039250611254565b6001836020036101000a0380198251168184511680821785525050505050509050019150509081526020016040518091039020600201548115156112b957fe5b04604051808373ffffffffffffffffffffffffffffffffffffffff1673ffffffffffffffffffffffffffffffffffffffff1681526020018281526020019250505060405180910390a161188c565b6001826040518082805190602001908083835b60208310151561133f578051825260208201915060208101905060208303925061131a565b6001836020036101000a038019825116818451168082178552505050505050905001915050908152602001604051809103902060000160009054906101000a900473ffffffffffffffffffffffffffffffffffffffff1673ffffffffffffffffffffffffffffffffffffffff166108fc60026001856040518082805190602001908083835b6020831015156113e957805182526020820191506020810190506020830392506113c4565b6001836020036101000a03801982511681845116808217855250505050505090500191505090815260200160405180910390206002015481151561142957fe5b049081150290604051600060405180830381858888f19350505050158015611455573d6000803e3d6000fd5b506001826040518082805190602001908083835b60208310151561148e5780518252602082019150602081019050602083039250611469565b6001836020036101000a038019825116818451168082178552505050505050905001915050908152602001604051809103902060010160009054906101000a900473ffffffffffffffffffffffffffffffffffffffff1673ffffffffffffffffffffffffffffffffffffffff166108fc60026001856040518082805190602001908083835b6020831015156115385780518252602082019150602081019050602083039250611513565b6001836020036101000a03801982511681845116808217855250505050505090500191505090815260200160405180910390206002015481151561157857fe5b049081150290604051600060405180830381858888f193505050501580156115a4573d6000803e3d6000fd5b507fbb28353e4598c3b9199101a66e0989549b659a59a54d2c27fbb183f1932c8e6d6001836040518082805190602001908083835b6020831015156115fe57805182526020820191506020810190506020830392506115d9565b6001836020036101000a038019825116818451168082178552505050505050905001915050908152602001604051809103902060000160009054906101000a900473ffffffffffffffffffffffffffffffffffffffff1660026001856040518082805190602001908083835b60208310151561168f578051825260208201915060208101905060208303925061166a565b6001836020036101000a0380198251168184511680821785525050505050509050019150509081526020016040518091039020600201548115156116cf57fe5b04604051808373ffffffffffffffffffffffffffffffffffffffff1673ffffffffffffffffffffffffffffffffffffffff1681526020018281526020019250505060405180910390a17fbb28353e4598c3b9199101a66e0989549b659a59a54d2c27fbb183f1932c8e6d6001836040518082805190602001908083835b602083101515611771578051825260208201915060208101905060208303925061174c565b6001836020036101000a038019825116818451168082178552505050505050905001915050908152602001604051809103902060010160009054906101000a900473ffffffffffffffffffffffffffffffffffffffff1660026001856040518082805190602001908083835b60208310151561180257805182526020820191506020810190506020830392506117dd565b6001836020036101000a03801982511681845116808217855250505050505090500191505090815260200160405180910390206002015481151561184257fe5b04604051808373ffffffffffffffffffffffffffffffffffffffff1673ffffffffffffffffffffffffffffffffffffffff1681526020018281526020019250505060405180910390a15b6001826040518082805190602001908083835b6020831015156118c4578051825260208201915060208101905060208303925061189f565b6001836020036101000a0380198251168184511680821785525050505050509050019150509081526020016040518091039020600080820160006101000a81549073ffffffffffffffffffffffffffffffffffffffff02191690556001820160006101000a81549073ffffffffffffffffffffffffffffffffffffffff02191690556002820160009055505060019050919050565b6000809054906101000a900473ffffffffffffffffffffffffffffffffffffffff1681565b60008060009054906101000a900473ffffffffffffffffffffffffffffffffffffffff1673ffffffffffffffffffffffffffffffffffffffff163373ffffffffffffffffffffffffffffffffffffffff161415156119db57600080fd5b8173ffffffffffffffffffffffffffffffffffffffff166001846040518082805190602001908083835b602083101515611a2a5780518252602082019150602081019050602083039250611a05565b6001836020036101000a038019825116818451168082178552505050505050905001915050908152602001604051809103902060000160009054906101000a900473ffffffffffffffffffffffffffffffffffffffff1673ffffffffffffffffffffffffffffffffffffffff161415611be5576001836040518082805190602001908083835b602083101515611ad55780518252602082019150602081019050602083039250611ab0565b6001836020036101000a038019825116818451168082178552505050505050905001915050908152602001604051809103902060000160009054906101000a900473ffffffffffffffffffffffffffffffffffffffff1673ffffffffffffffffffffffffffffffffffffffff166108fc6001856040518082805190602001908083835b602083101515611b7d5780518252602082019150602081019050602083039250611b58565b6001836020036101000a0380198251168184511680821785525050505050509050019150509081526020016040518091039020600201549081150290604051600060405180830381858888f19350505050158015611bdf573d6000803e3d6000fd5b50611df9565b8173ffffffffffffffffffffffffffffffffffffffff166001846040518082805190602001908083835b602083101515611c345780518252602082019150602081019050602083039250611c0f565b6001836020036101000a038019825116818451168082178552505050505050905001915050908152602001604051809103902060010160009054906101000a900473ffffffffffffffffffffffffffffffffffffffff1673ffffffffffffffffffffffffffffffffffffffff161415611def576001836040518082805190602001908083835b602083101515611cdf5780518252602082019150602081019050602083039250611cba565b6001836020036101000a038019825116818451168082178552505050505050905001915050908152602001604051809103902060010160009054906101000a900473ffffffffffffffffffffffffffffffffffffffff1673ffffffffffffffffffffffffffffffffffffffff166108fc6001856040518082805190602001908083835b602083101515611d875780518252602082019150602081019050602083039250611d62565b6001836020036101000a0380198251168184511680821785525050505050509050019150509081526020016040518091039020600201549081150290604051600060405180830381858888f19350505050158015611de9573d6000803e3d6000fd5b50611df8565b60009050611ec2565b5b6001836040518082805190602001908083835b602083101515611e315780518252602082019150602081019050602083039250611e0c565b6001836020036101000a0380198251168184511680821785525050505050509050019150509081526020016040518091039020600080820160006101000a81549073ffffffffffffffffffffffffffffffffffffffff02191690556001820160006101000a81549073ffffffffffffffffffffffffffffffffffffffff021916905560028201600090555050600190505b92915050565b6000611ed261203d565b600034111515611ee157600080fd5b6060604051908101604052803373ffffffffffffffffffffffffffffffffffffffff168152602001600073ffffffffffffffffffffffffffffffffffffffff168152602001348152509050806001846040518082805190602001908083835b602083101515611f655780518252602082019150602081019050602083039250611f40565b6001836020036101000a038019825116818451168082178552505050505050905001915050908152602001604051809103902060008201518160000160006101000a81548173ffffffffffffffffffffffffffffffffffffffff021916908373ffffffffffffffffffffffffffffffffffffffff16021790555060208201518160010160006101000a81548173ffffffffffffffffffffffffffffffffffffffff021916908373ffffffffffffffffffffffffffffffffffffffff160217905550604082015181600201559050506001915050919050565b606060405190810160405280600073ffffffffffffffffffffffffffffffffffffffff168152602001600073ffffffffffffffffffffffffffffffffffffffff1681526020016000815250905600a165627a7a72305820f64dadc6072fe61c86a632013d9abc6a53b0d59dd49c187d851833c277c166e60029",
  "source": "pragma solidity ^0.4.19;\n\ncontract NoBookie {\n\n  struct Bet {\n    address creator;\n    address challenger;\n    uint amount;\n  }\n\n  address public owner;\n\n  mapping (string => Bet) bets;\n\n  modifier ownerOnly {require(msg.sender == owner); _;}\n\n  event Deposit(address _from, uint _amount);\n  event Refund(address _to, uint _amount);\n  event Disburse(address _to, uint amount, uint fee);\n\n  constructor() public {\n    owner = msg.sender;\n  }\n\n  function addBet(string betId) public payable returns (bool success) {\n    require(msg.value > 0);\n\n    Bet memory bet = Bet(msg.sender, 0x0, msg.value);\n    bets[betId] = bet;\n\n    return true;\n  }\n\n  function acceptBet(string betId) public payable returns (bool success) {\n    require(msg.value == bets[betId].amount);\n\n    bets[betId].challenger = msg.sender;\n    bets[betId].amount += msg.value;\n\n    return true;\n  }\n\n  function disburseBet(\n    string betId,\n    address winner\n  ) ownerOnly public returns (bool success) {\n    if (bets[betId].creator == winner) {\n      bets[betId].creator.transfer(bets[betId].amount);\n    } else if (bets[betId].challenger == winner) {\n      bets[betId].challenger.transfer(bets[betId].amount);\n    } else {\n      return false;\n    }\n\n    delete bets[betId];\n    return true;\n  }\n\n  function disburseBetMinusFee(\n    string betId,\n    address winner,\n    uint fee\n  ) ownerOnly public returns (bool success) {\n    if (bets[betId].creator == winner) {\n      bets[betId].creator.transfer(bets[betId].amount - fee);\n      msg.sender.transfer(fee);\n      emit Disburse(bets[betId].creator, bets[betId].amount - fee, fee);\n    } else if (bets[betId].challenger == winner) {\n      bets[betId].challenger.transfer(bets[betId].amount - fee);\n      emit Disburse(bets[betId].challenger, bets[betId].amount - fee, fee);\n      msg.sender.transfer(fee);\n    } else {\n      return false;\n    }\n\n    delete bets[betId];\n    return true;\n  }\n\n  // when there's no challenger, the creator should get it all\n  // when there is a challenger, the creator gets half and the challenger gets half\n  function cancelBet(string betId) public returns (bool success) {\n    require(msg.sender != bets[betId].creator && msg.sender != bets[betId].challenger);\n\n    if (bets[betId].challenger == address(0)) {\n      bets[betId].creator.transfer(bets[betId].amount);\n      emit Refund(bets[betId].creator, bets[betId].amount / 2);\n    } else {\n      bets[betId].creator.transfer(bets[betId].amount / 2);\n      bets[betId].challenger.transfer(bets[betId].amount / 2);\n      emit Refund(bets[betId].creator, bets[betId].amount / 2);\n      emit Refund(bets[betId].challenger, bets[betId].amount / 2);\n    }\n\n    delete bets[betId];\n\n    return true;\n  }\n}\n",
  "sourcePath": "/Users/ishmael/www/freelance/cryptosports/cryptosports-smartcontract/contracts/NoBookie.sol",
  "compiler": {
    "name": "solc",
    "version": "0.4.23+commit.124ca40d.Emscripten.clang"
  },
  "schemaVersion": "2.0.0",
  "updatedAt": "2018-11-09T07:07:45.533Z"
}